2339769145400100100003C0000000000000000000020201102TEST                                                                                                                                                                                                                                                                                                                                                         
2339769145400100100003D20201102000000095520000000000000032       CAROLINA                      27304406769202011040000000000000000000000150200000000000000000000000000000000000000000000000000000000000000000120201102000060000000000000000001000000000000000000000000000000                                                                                                                                    
2339769145400100100003D20201102000000095521ECHEQ   000723122820000019640000008835400000000001502020201102 20201104018NN00520201102M000955200100120201104005400000                      64                                                                                                                                                                                                                       
2339769145400100100003D20201102000000095522OP000000000000001                00002020110400000000000000000000000000000000000000000000000000000000000015020                                                                                                                                                                                                                                                       
2339769145400100100003D20201102000000095523000000000000000000000000000000000000000000000000000000000000000000000000000000000000000000000000000000                                                                                                                                                                                                                                                               
2339769145400100100003D20201102000000095524                                          000100100000                                                                                                                                                                                                                                                                                                               
2339769145400100100003D20201102000000095530000000000000032       CAROLINA                      27304406769202011040000000000000000000000150200000000000000000000000000000000000000000000000000000000000000000120201102000060000000000000000002000000000000000000000000000000                                                                                                                                    
2339769145400100100003D20201102000000095531ECHEQ   000724031195403000260000360229600000000001502020201102A20201104011NN04520201102M000955300100120201104005400000                      64                                                                                                                                                                                                                       
2339769145400100100003D20201102000000095532OP000000000000002                00002020110400000000000000000000000000000000000000000000000000000000000015020                                                                                                                                                                                                                                                       
2339769145400100100003D20201102000000095533000000000000000000000000000000000000000000000000000000000000000000000000000000000000000000000000000000                                                                                                                                                                                                                                                               
2339769145400100100003D20201102000000095534                                          000100100000                                                                                                                                                                                                                                                                                                               
2339769145400100100003D20201102000000095540000000000000032       CAROLINA                      27304406769202011040000000000000000000000150200000000000000000000000000000000000000000000000000000000000000000120201102000060000000000000000003000000000000000000000000000000                                                                                                                                    
2339769145400100100003D20201102000000095541ECHEQ   000724991678000000930000000239600000000001502020201102R20201104011NN04720201102M000955400100120201104005400000                      64202                                                                                                                                                                                                                    
2339769145400100100003D20201102000000095542OP000000000000003                00002020110400000000000000000000000000000000000000000000000000000000000015020                                                                                                                                                                                                                                                       
2339769145400100100003D20201102000000095543000000000000000000000000000000000000000000000000000000000000000000000000000000000000000000000000000000                                                                                                                                                                                                                                                               
2339769145400100100003D20201102000000095544                                          000100100000                                                                                                                                                                                                                                                                                                               
2339769145400100100003T9999999999999999999900000000170000000003000000000045060000000000000000000000000000000000000000000000                                                                                                                                                                                                                                                                                     
