2339769145400100100002C0000000000000000000020201102TEST                                                                                                                                                                                                                                                                                                                                                         
2339769145400100100002D202011020000000954501                     NOMBRE PROVEEDOR              23397691454202011040000000001000000000000100000000000000000000000000000000000000000000000000000000000000000000120201102000050000000000000000012000000000000000000000000000000                                                                                                                                    
2339769145400100100002D20201102000000095451ECHEQ   000725211838000001120000000063500000000001000020201102 20201104018NN00520201104M000954500100120201104005400000                      64                                                                                                                                                                                                                       
2339769145400100100002D20201102000000095452RA14                             12  2020110200000000000000000000000000000000000000000000000000000000000010000                                                                                                                                                                                                                                                       
2339769145400100100002D20201102000000095453000000000000000000000000000000000000000000000000000000000000000000000000000000000000000000000000000000                                                                                                                                                                                                                                                               
2339769145400100100002D20201102000000095454                                          000100100000                                                                                                                                                                                                                                                                                                               
2339769145400100100002T9999999999999999999900000000070000000001000000000010000000000000000000000000000000000000000000000000                                                                                                                                                                                                                                                                                     
