H233976914540010020070000200000                                                                                                                                                                                                                                                                                                                                                                                                                                                                                                                                                                                                                                           
D 0000000000000031OP5              0000CAROLINA                      S/D                           S/D                  01000    00000000000000000000000000000000000000000000000000000000000000000000000000000000000           27304406769                                                                                                                                                         001001   S005400110328900030032802712097202009292020092900000000001100057   00000000000   00000000000   000000000000010000000000000000005000000 CAROLINA                                                                                                               
T0000000000000000000000000110000000001                                                                                                                                                                                                                                                                                                                                                                                                                                                                                                                                                                                                                                    
