H233976914540010010070000500000                                                                                                                                                                                                                                                                                                                                                                                                                                                                                                                                                                                                                                           
D 01              OP12             0000NOMBRE PROVEEDOR              DIRECCION PROVEEDOR           LOCALIDAD PROVEEDOR  01000    00000000000000000000000000000000000000000000000000000000000000000000000000000000000           23397691454                                                                                                                                                         001001018N005400000000000000000000000000202011042020110400000000001000064   00000000000   00000000000   000000000000010000000000000000012000000                                                                                                                        
I0050101                   00100120201104         00000000000000012  TEST                          DIRECCION                      01000    LOCALIDAD           CAPITAL FEDERAL     1              NOMBRE PROVEEDOR              DIRECCION PROVEEDOR            01000    LOCALIDAD PROVEEDOR CAPITAL FEDERAL     23397691454000000000010000000000000000000000000000010000                                                                                20201104                                                                                                                                                                                                          
I0050102                   00100120201104         20201102FACTURA   14             12  +000000000010000                                                                                                                                                                                                                                                                                                                                                                                                                                                                                                                                                                   
T0000000000000000000000000100000000001                                                                                                                                                                                                                                                                                                                                                                                                                                                                                                                                                                                                                                    
