H233976914540010010070000600000                                                                                                                                                                                                                                                                                                                                                                                                                                                                                                                                                                                                                                           
D 0000000000000032OP0000000000000010000CAROLINA                      S/D                           S/D                  01000    00000000000000000000000000000000000000000000000000000000000000000000000000000000000           27304406769                                                                                                                                                         001001018S005400000000000000000000000000202011022020110400000000001502064   00000000000   00000000000   000000000000010000000000000000001000000 CAROLINA                                                                                                               
D 0000000000000032OP0000000000000020000CAROLINA                      S/D                           S/D                  01000    00000000000000000000000000000000000000000000000000000000000000000000000000000000000           27304406769                                                                                                                                                         001001011S005400000000000000000000000000202011022020110400000000001502064   00000000000   00000000000   000000000000010000000000000000002000000 CAROLINA                                                                                                               
D 0000000000000032OP0000000000000030000CAROLINA                      S/D                           S/D                  01000    00000000000000000000000000000000000000000000000000000000000000000000000000000000000           27304406769                                                                                                                                                         001001011S005400000000000000000000000000202011022020110400000000001502064   00000000000   00000000000   000000000000010000000000000000003000000 CAROLINA                                                                                                               
T0000000000000000000000000450600000003                                                                                                                                                                                                                                                                                                                                                                                                                                                                                                                                                                                                                                    
