H233976914540010010070000300000                                                                                                                                                                                                                                                                                                                                                                                                                                                                                                                                                                                                                                           
D 01              OP1              0000NOMBRE PROVEEDOR              DIRECCION PROVEEDOR           LOCALIDAD PROVEEDOR  01000    00000000000000000000000000000000000000000000000000000000000000000000000000000000000           23397691454                                                                                                                                                         001001018N005400000000000000000000000000202008242020082400000000000100064   00000000000   00000000000   000000000000010000000000000000001000000                                                                                                                        
I0050101                   00100120200824         00000000000000001  TEST                          DIRECCION                      01000    LOCALIDAD           CAPITAL FEDERAL     1              NOMBRE PROVEEDOR              DIRECCION PROVEEDOR            01000    LOCALIDAD PROVEEDOR CAPITAL FEDERAL     23397691454000000000001000000000000000000000000000001000                                                                                20200824                                                                                                                                                                                                          
I0050102                   00100120200824         20200820FACTURA   1              0   +000000000001000                                                                                                                                                                                                                                                                                                                                                                                                                                                                                                                                                                   
D 01              OP2              0000NOMBRE PROVEEDOR              DIRECCION PROVEEDOR           LOCALIDAD PROVEEDOR  01000    00000000000000000000000000000000000000000000000000000000000000000000000000000000000           23397691454                                                                                                                                                         001001018N005400000000000000000000000000202008242020082400000000001000064   00000000000   00000000000   000000000000010000000000000000001000000                                                                                                                        
I0050101                   00100120200824         00000000000000001  TEST                          DIRECCION                      01000    LOCALIDAD           CAPITAL FEDERAL     1              NOMBRE PROVEEDOR              DIRECCION PROVEEDOR            01000    LOCALIDAD PROVEEDOR CAPITAL FEDERAL     23397691454000000000010000000000000000000000000000010000                                                                                20200824                                                                                                                                                                                                          
I0050102                   00100120200824         20200820FACTURA   2              0   +000000000010000                                                                                                                                                                                                                                                                                                                                                                                                                                                                                                                                                                   
T0000000000000000000000000110000000002                                                                                                                                                                                                                                                                                                                                                                                                                                                                                                                                                                                                                                    
